:100000000C942A000C9447000C9447000C94470071
:100010000C9447000C9447000C9447000C94470044
:100020000C9447000C9447000C9447000C94470034
:100030000C9447000C9447000C9447000C94470024
:100040000C9447000C9447000C9447000C94470014
:100050000C94470011241FBECFE5D8E0DEBFCDBF12
:1000600010E0A0E6B0E0E8EBF7E002C005900D92EA
:10007000A63CB107D9F720E0A6ECB0E001C01D9284
:10008000A03DB207E1F70E948E030C94DA030C94B2
:100090000000CF92DF92EF92FF920F931F93CF93C6
:1000A000DF9341E060E081E00E94F70041E060E022
:1000B00081E00E9467018FE39CE90197F1F700C09E
:1000C000000040E060E081E00E9467019FEFE9EFFF
:1000D000F0E09150E040F040E1F700C0000041E066
:1000E00060E081E00E94670140E060E081E00E9402
:1000F000F70060E081E00E94D7018130D1F360E039
:1001000081E00E94D7018823D1F360E081E00E9462
:10011000D7018130D1F306EC10E00F2EFBECCF2E8F
:10012000F0E0DF2EF02DEE24E394F12C35C060E0FA
:1001300081E00E94D7018823D1F320EA2A95F1F7C4
:1001400060E081E00E94D701813099F4F8012081BC
:10015000C7010C2E02C0880F991F0A94E2F7822B68
:10016000F801808360E081E00E94D7018111FACF1D
:100170000CC0C7010C2E02C0880F991F0A94E2F729
:100180008095F801908189238083219780F60F5F05
:100190001F4F0C151D0519F0C7E0D0E0C8CF41E096
:1001A00060E081E00E94F70041E060E081E00E94B1
:1001B000670186EC90E0DF91CF911F910F91FF9046
:1001C000EF90DF90CF9008950E944900FC0180815C
:1001D0008093CF0081818093CE0082818093CC0078
:1001E00083818093CD0084818093CB00089541303A
:1001F000A1F5813089F028F08230C9F0833011F107
:10020000089581E090E002C0880F991F6A95E2F797
:100210009AB3892B8ABB089581E090E002C0880FD1
:10022000991F6A95E2F797B3892B87BB089581E000
:1002300090E002C0880F991F6A95E2F794B3892B6A
:1002400084BB089581E090E002C0880F991F6A95F1
:10025000E2F791B3892B81BB0895411137C08130FA
:1002600091F028F08230D9F0833029F1089581E0AF
:1002700090E002C0880F991F6A95E2F780959AB3C3
:1002800089238ABB089581E090E002C0880F991FFE
:100290006A95E2F7809597B3892387BB089581E03B
:1002A00090E002C0880F991F6A95E2F7809594B399
:1002B000892384BB089581E090E002C0880F991FD4
:1002C0006A95E2F7809591B3892381BB0895413007
:1002D000A1F5813089F028F08230C9F0833011F126
:1002E000089581E090E002C0880F991F6A95E2F7B7
:1002F0009BB3892B8BBB089581E090E002C0880FEF
:10030000991F6A95E2F798B3892B88BB089581E01D
:1003100090E002C0880F991F6A95E2F795B3892B88
:1003200085BB089581E090E002C0880F991F6A950F
:10033000E2F792B3892B82BB0895411137C0813017
:1003400091F028F08230D9F0833029F1089581E0CE
:1003500090E002C0880F991F6A95E2F780959BB3E1
:1003600089238BBB089581E090E002C0880F991F1C
:100370006A95E2F7809598B3892388BB089581E058
:1003800090E002C0880F991F6A95E2F7809595B3B7
:10039000892385BB089581E090E002C0880F991FF2
:1003A0006A95E2F7809592B3892382BB08958130E4
:1003B00081F028F08230B9F08330F9F027C089B39A
:1003C00090E002C0959587956A95E2F7982F917015
:1003D0001DC086B390E002C0959587956A95E2F7B7
:1003E000982F917013C083B390E002C095958795C4
:1003F0006A95E2F7982F917009C080B390E002C02F
:10040000959587956A95E2F7982F9170892F0895B1
:100410008AB3807F8ABBDD9ADC9882E08A95F1F707
:1004200000C0DE9A92E09A95F1F700C089B38295F8
:10043000807F92E09A95F1F700C0DE9895E09A955A
:10044000F1F70000DE9A92E09A95F1F700C099B3B7
:1004500092E09A95F1F700C0DE9895E09A95F1F751
:1004600000008823F4F2DD988AB38F608ABB089578
:10047000282F22952F708F70611102C0DC9801C067
:10048000DC9A92E09A95F1F700C0DE9A9BB3907FD8
:10049000922B9BBB95E09A95F1F70000DE9895E0D2
:1004A0009A95F1F70000DE9A9BB3907F892B8BBB66
:1004B00085E08A95F1F70000DE9895E09A95F1F7CE
:1004C00000000E94080208950F931F93CF93DF93BB
:1004D000C82F2FEF81EE94E0215080409040E1F74B
:1004E00000C000008BB3807F8BBBDE98DD98DC986A
:1004F0008AB38F608ABBD69AD49AD59A00C000C0BE
:100500000000DE9AD99A25E02A95F1F70000DE98DE
:1005100085E08A95F1F700008FEA94E00197F1F702
:1005200000C0000060E088E20E94380260E08C2F8A
:1005300088600E94380260E08C2F8C600E94380234
:1005400060E080E40E943802C0E6D0E000EA10E0FB
:1005500061E089910E943802C017D107C9F760E0B5
:1005600081E00E943802DF91CF911F910F91089591
:100570000F931F93CF93DF938C01FC01808188231D
:1005800009F18532A9F4E8012196F80181818053AF
:10059000883020F461E00E9438020EC061E085E2FC
:1005A0000E94380261E0F80181810E94380204C093
:1005B00061E00E943802E8018E010F5F1F4F8981C0
:1005C0008111DFCFDF91CF911F910F910895EF92AD
:1005D000FF920F931F93CF93DF9300D000D01F9211
:1005E000CDB7DEB78C01F62EFE01319685E0DF0136
:1005F0001D928A95E9F7112344F461E08DE20E948F
:10060000380211950195110904C061E080E20E9451
:1006100038020115110571F0FE0136962AE030E02E
:10062000C801B9010E94B2038293062F172F01154A
:100630001105B1F7BFEFFB120DC08981811114C004
:10064000FE01329600E010E00F5F1F4F819188237A
:10065000D9F306C005E010E00F191109F7FC139556
:10066000053011051CF015C000E010E0EE24E39405
:10067000F12CEC0EFD1EE00EF11EF70181917F01C1
:1006800061E0805D0E9438020F5F1F4F0530110549
:10069000A4F30F900F900F900F900F90DF91CF91D8
:1006A0001F910F91FF90EF900895843178F462309C
:1006B00031F0633031F0613029F4806403C08C5E26
:1006C00001C08C5A60E080680E943802089560E0A2
:1006D00085E00E94550381EB90E00E94B8022FEF65
:1006E00089E698E1215080409040E1F700C0000089
:1006F00061E084E00E94550389EB90E00E94B8021B
:100700002FEF83ED90E3215080409040E1F700C04F
:10071000000060E081E00E943802089580E00E94BD
:10072000640260E081E00E9438020E94670341E0B9
:1007300067E083E00E94F7000E94E4008091CC0013
:1007400062E090E00E94E7022FEF83E294EF2150F5
:1007500080409040E1F700C0000060E081E00E942E
:100760003802EACF97FB072E16F4009407D077FDE6
:1007700009D00E94C60307FC05D03EF490958195F0
:100780009F4F0895709561957F4F0895AA1BBB1BDD
:1007900051E107C0AA1FBB1FA617B70710F0A61B81
:1007A000B70B881F991F5A95A9F780959095BC01A2
:0807B000CD010895F894FFCF7C
:1007B8000000040E0400000000040E1F0E040000D8
:1007C800040404041F0E04000A15110A04000000A2
:1007D8000A1F1F0E040000000C12120C000000007B
:1007E800040E1F04040404000102140800000000A1
:1007F80054656D70653A0048756D69646974793A35
:100808000057656C636F6D65007961737461205280
:06081800656D6978000027
:00000001FF
