S0110000536D617274436167652E737265639C
S11300000C942A000C9490010C94B9010C94E20114
S11300100C9447000C9447000C9447000C94100473
S11300200C9447000C9447000C9447000C948C03E8
S11300300C9447000C9447000C9447000C94470020
S11300400C9447000C9447000C9447000C94470010
S11300500C94470011241FBECFE5D8E0DEBFCDBF0E
S113006010E0A0E6B0E0E0E3FBE002C005900D92F2
S1130070A43CB107D9F720E0A4ECB0E001C01D9284
S1130080AE3DB207E1F70E941C050C9496050C9452
S113009000004130A1F5813089F028F08230C9F0A8
S11300A0833011F1089581E090E002C0880F991F18
S11300B06A95E2F79AB3892B8ABB089581E090E0B0
S11300C002C0880F991F6A95E2F797B3892B87BB03
S11300D0089581E090E002C0880F991F6A95E2F7C5
S11300E094B3892B84BB089581E090E002C0880F0B
S11300F0991F6A95E2F791B3892B81BB0895411149
S113010037C0813091F028F08230D9F0833029F162
S1130110089581E090E002C0880F991F6A95E2F784
S113012080959AB389238ABB089581E090E002C048
S1130130880F991F6A95E2F7809597B3892387BB47
S1130140089581E090E002C0880F991F6A95E2F754
S1130150809594B3892384BB089581E090E002C024
S1130160880F991F6A95E2F7809591B3892381BB23
S113017008954130A1F5813089F028F08230C9F02A
S1130180833011F1089581E090E002C0880F991F37
S11301906A95E2F79BB3892B8BBB089581E090E0CD
S11301A002C0880F991F6A95E2F798B3892B88BB20
S11301B0089581E090E002C0880F991F6A95E2F7E4
S11301C095B3892B85BB089581E090E002C0880F28
S11301D0991F6A95E2F792B3892B82BB0895411166
S11301E037C0813091F028F08230D9F0833029F182
S11301F0089581E090E002C0880F991F6A95E2F7A4
S113020080959BB389238BBB089581E090E002C065
S1130210880F991F6A95E2F7809598B3892388BB64
S1130220089581E090E002C0880F991F6A95E2F773
S1130230809595B3892385BB089581E090E002C041
S1130240880F991F6A95E2F7809592B3892382BB40
S11302500895813081F028F08230B9F08330F9F0CC
S113026027C089B390E002C0959587956A95E2F717
S1130270982F91701DC086B390E002C09595879524
S11302806A95E2F7982F917013C083B390E002C08F
S1130290959587956A95E2F7982F917009C080B378
S11302A090E002C0959587956A95E2F7982F917032
S11302B0892F08958FB780688FBF85B7816085BF08
S11302C085B7826085BF8BB780648BBF08958FB775
S11302D080688FBF85B7886085BF85B7846085BF18
S11302E08BB780688BBF08958FB780688FBF84B742
S11302F0806484BF8BB78F7D8BBF8BB780628BBFCD
S113030008959093C9008093C80008959093C700FE
S11303108093C60008959093C5008093C400089507
S11303201F920F920FB60F9211242F933F934F9366
S11303305F936F937F938F939F93AF93BF93EF9349
S1130340FF93E091C800F091C900309709F0099536
S1130350FF91EF91BF91AF919F918F917F916F9199
S11303605F914F913F912F910F900FBE0F901F906F
S113037018951F920F920FB60F9211242F933F934B
S11303804F935F936F937F938F939F93AF93BF9399
S1130390EF93FF93E091C600F091C700309709F006
S11303A00995FF91EF91BF91AF919F918F917F91AB
S11303B06F915F914F913F912F910F900FBE0F90CE
S11303C01F9018951F920F920FB60F9211242F931E
S11303D03F934F935F936F937F938F939F93AF93C9
S11303E0BF93EF93FF93E091C400F091C500309761
S11303F009F009958AB78F7D8ABFFF91EF91BF916C
S1130400AF919F918F917F916F915F914F913F91A8
S11304102F910F900FBE0F901F9018958AB3877875
S11304208ABBD89AD99882E08A95F1F700C0DA9A03
S113043092E09A95F1F700C089B3869586958695E2
S11304408295807F92E09A95F1F700C0DA9895E062
S11304509A95F1F70000DA9A92E09A95F1F700C0C4
S113046099B392E09A95F1F700C0DA9895E09A95DD
S1130470F1F700008823DCF2D8988AB388678ABB36
S11304800895982F92959F708F70611102C0D9982A
S113049001C0D99A22E02A95F1F700C0DA9A2BB369
S11304A02778990F990F990F922B9BBB95E09A95FA
S11304B0F1F70000DA9825E02A95F1F70000DA9ABE
S11304C09BB39778880F880F880F892B8BBB85E0A7
S11304D08A95F1F70000DA9895E09A95F1F7000013
S11304E00E940E0208950F931F93CF93DF93C82F9A
S11304F02FEF81EE94E0215080409040E1F700C05E
S113050000008BB387788BBBDA98D898D9988AB3D4
S113051088678ABBD29AD19AD09A00C000C00000E2
S1130520DA9ADC9A25E02A95F1F70000DA9885E05A
S11305308A95F1F700008FEA94E00197F1F700C083
S1130540000060E088E20E94410260E08C2F886035
S11305500E94410260E08C2F8C600E94410260E0A6
S113056080E40E944102C0E6D0E000EA10E061E0CD
S113057089910E944102C017D107C9F760E081E068
S11305800E944102DF91CF911F910F9108950F9323
S11305901F93CF93DF938C01FC018081882309F1A1
S11305A08532A9F4E8012196F801818180538830CD
S11305B020F461E00E9441020EC061E085E20E94E5
S11305C0410261E0F80181810E94410204C061E0BE
S11305D00E944102E8018E010F5F1F4F8981811142
S11305E0DFCFDF91CF911F910F910895EF92FF928A
S11305F00F931F93CF93DF9300D000D01F92CDB7FA
S1130600DEB78C01F62EFE01319685E0DF011D92E6
S11306108A95E9F7112344F461E08DE20E944102D6
S113062011950195110904C061E080E20E94410224
S11306300115110571F0FE0136962AE030E0C8017B
S1130640B9010E946E058293062F172F011511051B
S1130650B1F7BFEFFB120DC08981811114C0FE01F7
S1130660329600E010E00F5F1F4F81918823D9F389
S113067006C005E010E00F191109F7FC13950530C9
S113068011051CF015C000E010E0EE24E394F12CF9
S1130690EC0EFD1EE00EF11EF70181917F0161E079
S11306A0805D0E9441020F5F1F4F05301105A4F3C6
S11306B00F900F900F900F900F90DF91CF911F919B
S11306C00F91FF90EF900895843178F4623031F007
S11306D0633031F0613029F4806403C08C5E01C062
S11306E08C5A60E080680E944102089583B7886054
S11306F083BF83B7806483BF83B78F7E83BF83B791
S1130700806283BF83B7816083BF83B78D7F83BFDC
S113071083B7846083BF08951F920F920FB60F9220
S113072011242F933F934F935F936F937F938F93F2
S11307309F93AF93BF93EF93FF93E091CB00F0911E
S1130740CC00309761F08091CA008F5F8093CA001B
S11307508F3129F409951092CA0085E882BFFF9170
S1130760EF91BF91AF919F918F917F916F915F9125
S11307704F913F912F910F900FBE0F901F9018959E
S11307808FB780688FBF8EB59FB59F7E9FBD8EBD8E
S11307908EB59FB59F7D9FBD8EBD8EB59FB59F7B4A
S11307A09FBD8EBD8EB59FB59F779FBD8EBD8EB507
S11307B09FB59E7F9FBD8EBD8EB59FB59D7F9FBD0E
S11307C08EBD8EB59FB588609FBD8EBD8EB59FB51D
S11307D08F7E9FBD8EBD84E294EF9BBD8ABD89B799
S11307E08B7F89BF89B7877F89BF89B7806189BFBC
S11307F089B78F7D89BF8EB59FB58E7F9FBD8EBD16
S11308008EB59FB58D7F9FBD8EBD8EB59FB584601F
S11308109FBD8EBD08959093CF008093CE00089520
S11308201F920F920FB60F9211242F933F934F9361
S11308305F936F937F938F939F93AF93BF93EF9344
S1130840FF93E091CE00F091CF00309751F080916A
S1130850CD008F5F8093CD00813019F409951092FB
S1130860CD00FF91EF91BF91AF919F918F917F91B7
S11308706F915F914F913F912F910F900FBE0F9009
S11308801F9018958091DA009091DB00A091DC0014
S1130890B091DD000196A11DB11D8093DA00909303
S11308A0DB00A093DC00B093DD0062E00E94F6025E
S11308B08091D6009091D700A091D800B091D90032
S11308C00196A11DB11D8093D6009093D700A093EB
S11308D0D800B093D9008091D2009091D300A09118
S11308E0D400B091D5000196A11DB11D8093D20012
S11308F09093D300A093D400B093D5008091D000FE
S11309009091D10001969093D1008093D0000895E6
S113091041E060E082E00E94490041E060E082E062
S11309200E94B9001092DA001092DB001092DC00F1
S11309301092DD00089541E060E083E00E94B90078
S11309402FEF8BE792E9215080409040E1F700C0FF
S1130950000040E060E083E00E94B9002FEF81EEE8
S113096094E0215080409040E1F700C000000895D9
S113097066E081E00E9429018823B1F067E081E00C
S11309800E942901882381F041E064E082E00E9412
S1130990B90067E081E00E9429018823D1F340E097
S11309A064E082E00E94B9002FEF81EE94E02150D0
S11309B080409040E1F700C00000089560E085E0C9
S11309C00E94640381EB90E00E94C7022FEF89E646
S11309D098E1215080409040E1F700C0000061E0C0
S11309E084E00E94640389EB90E00E94C7022FEF29
S11309F083ED90E3215080409040E1F700C0000077
S1130A0060E081E00E94410208958091DA009091B3
S1130A10DB00A091DC00B091DD000A97A105B105CF
S1130A2051F40E9488041092DA001092DB001092B4
S1130A30DC001092DD00089540E062E083E00E9453
S1130A40490040E063E083E00E94490040E062E046
S1130A5081E00E94490040E065E081E00E94490095
S1130A6040E066E081E00E94490040E067E081E008
S1130A700E94490040E060E081E00E9449000E9439
S1130A8076030E94C00382E494E00E940B040E9457
S1130A905A010E9467010E94740188E894E00E9450
S1130AA0810188EB94E00E9486018BE994E00E9426
S1130AB08B0180E00E94730260E081E00E944102A9
S1130AC00E94DE042FEF89E698E121508040904097
S1130AD0E1F700C000000E940505FDCF97FB072E3B
S1130AE016F4009407D077FD09D00E94820507FC14
S1130AF005D03EF4909581959F4F0895709561952A
S1130B007F4F0895AA1BBB1B51E107C0AA1FBB1F3F
S1130B10A617B70710F0A61BB70B881F991F5A9585
S1130B20A9F780959095BC01CD010895F894FFCF65
S1130B300000040E0400000000040E1F0E04000058
S1130B40040404041F0E04000A15110A0400000022
S1130B500A1F1F0E040000000C12120C00000000FB
S1130B60040E1F0404040400010214080000000021
S1130B7054656D70653A0048756D69646974793AB5
S1130B800057656C636F6D6500536D6172744361EA
S1070B906765000091
S9030000FC
