S00D0000536D6172742E7372656310
S11300000C942A000C9456030C9490030C9427032C
S11300100C9447000C9447000C9447000C94C503BF
S11300200C9447000C9447000C9447000C94470030
S11300300C9447000C9447000C9447000C94470020
S11300400C9447000C9447000C9447000C94470010
S11300500C94470011241FBECFE5D8E0DEBFCDBF0E
S113006010E0A0E6B0E0E0E3F8E002C005900D92F5
S1130070A43CB107D9F720E0A4ECB0E001C01D9284
S1130080A13DB207E1F70E94F1020C9416040C940E
S113009000008D9A959A8FE19EE40197F1F700C0D4
S11300A0000095988FE39CE90197F1F700C00000E8
S11300B0959A08958D988599FECF859BFECF859955
S11300C0FECF089588E090E0859BFECF20E52A9539
S11300D0F1F7859B07C02091CB00220F216020936C
S11300E0CB0005C02091CB00220F2093CB00859933
S11300F0FECF019749F78091CB0008950E944900F3
S11301000E945A000E9462008093D0000E94620004
S11301108093CF000E9462008093CD000E94620011
S11301208093CE000E9462008093CC008FE19EE415
S11301300197F1F700C0000008958AB3807F8ABB5D
S1130140DD9ADC9800C000C0DE9A00C000C089B30C
S11301508295807F00C000C0DE9892E09A95F1F706
S113016000C0DE9A00C000C099B300C000C0DE9891
S113017092E09A95F1F700C0882334F3DD988AB3AE
S11301808F608ABB0895282F22952F708F7061117C
S113019002C0DC9801C0DC9A00C000C0DE9A9BB3A8
S11301A0907F922B9BBB92E09A95F1F700C0DE986A
S11301B092E09A95F1F700C0DE9A9BB3907F892B69
S11301C08BBB82E08A95F1F700C0DE9892E09A95A5
S11301D0F1F700C00E949D0008950F931F93CF93E1
S11301E0DF93C82F2FEF80E792E0215080409040AA
S11301F0E1F700C000008BB3807F8BBBDE98DD98F5
S1130200DC988AB38F608ABBD69AD49AD59A00C0F8
S11302100000DE9AD99A22E02A95F1F700C0DE9810
S113022082E08A95F1F700C087E592E00197F1F743
S113023000C0000060E088E20E94C30060E08C2FF0
S113024088600E94C30060E08C2F8C600E94C30011
S113025060E080E40E94C300C0E6D0E000EA10E061
S113026061E089910E94C300C017D107C9F760E01B
S113027081E00E94C300DF91CF911F910F910895F7
S11302800F931F93CF93DF938C01FC01808188230C
S113029009F18532A9F4E8012196F801818180539E
S11302A0883020F461E00E94C3000EC061E085E262
S11302B00E94C30061E0F80181810E94C30004C070
S11302C061E00E94C300E8018E010F5F1F4F898126
S11302D08111DFCFDF91CF911F910F910895EF929C
S11302E0FF920F931F93CF93DF9300D000D01F9200
S11302F0CDB7DEB78C01F62EFE01319685E0DF0125
S11303001D928A95E9F7112344F461E08DE20E947D
S1130310C30011950195110904C061E080E20E94B7
S1130320C3000115110571F0FE0136962AE030E094
S1130330C801B9010E94EE038293062F172F0115FD
S11303401105B1F7BFEFFB120DC08981811114C0F3
S1130350FE01329600E010E00F5F1F4F8191882369
S1130360D9F306C005E010E00F191109F7FC139545
S1130370053011051CF015C000E010E0EE24E394F4
S1130380F12CEC0EFD1EE00EF11EF70181917F01B0
S113039061E0805D0E94C3000F5F1F4F05301105AF
S11303A0A4F30F900F900F900F900F90DF91CF91C7
S11303B01F910F91FF90EF900895843178F462308B
S11303C031F0633031F0613029F4806403C08C5E15
S11303D001C08C5A60E080680E94C300089560E008
S11303E080E00E94DD0180EA90E00E94400180915B
S11303F0CD0062E090E00E946F0161E080E00E9425
S1130400DD0187EA90E00E9440018091D00062E023
S113041090E00E946F01089560E085E00E94DD0194
S113042081EB90E00E9440012FEF84E39CE0215097
S113043080409040E1F700C0000061E084E00E9449
S1130440DD0189EB90E00E9440012FEF89E698E1FD
S1130450215080409040E1F700C0000060E081E05E
S11304600E94C3000895819B1EC08091CA0081111F
S11304706CC0AE982FEF84E39CE021508040904004
S1130480E1F700C00000AE9AAC9A2FEF89E698E13C
S1130490215080409040E1F700C00000AC9881E01A
S11304A08093CA000895809B1EC08091CA00811168
S11304B04CC02FEF84E39CE0215080409040E1F752
S11304C000C00000AF98AF9AAC9A2FEF89E698E18C
S11304D0215080409040E1F700C00000AC9881E0DA
S11304E08093CA0008958091CD008231A0F4809158
S11304F0CA0081112AC0AE9AAC9A2FEF89E698E11E
S1130500215080409040E1F700C00000AC9881E0A9
S11305108093CA0008958A31A0F08091CA008111A5
S113052014C0AF9AAC9A2FEF89E698E1215080402D
S11305309040E1F700C00000AC9881E08093CA00CD
S11305400895AE98AF981092CA0008958091C4009F
S11305509091C500893E93406CF0AB9A8091C400A1
S11305609091C500813B94402CF0AB981092C5004B
S11305701092C40008958091C6009091C700813DF7
S11305809740E4F086990CC0AA9A8FEF93ED20E38C
S1130590815090402040E1F700C00000AA9804C0B8
S11305A01092C7001092C600869903C0A99A869B30
S11305B0FDCFA9981092C7001092C60008958091AB
S11305C0C8009091C9008D3D954054F0879903C0AF
S11305D0A89A879BFDCFA8981092C9001092C800D2
S11305E008958FEF84BB11BABA9880E00E94ED00A1
S11305F00E940C028AB78F718ABF8BB7806E8BBF43
S113060085B78F6085BF84B7806484BF8FB78068E7
S11306108FBF8FE19EE40197F1F700C000001FBC7B
S11306208EB58A608EBD80E197E29BBD8ABD89B795
S1130630806189BF0E947E000E94EF010E94330204
S11306400E94A6020E94BB020E94DF02F3CF1F9207
S11306500F920FB60F9211242F938F939F93AB9AFF
S11306602FEF83ED90E3215080409040E1F700C0EC
S113067000008091C8009091C90088539F4F9093C7
S1130680C9008093C8008091C6009091C700885328
S11306909F4F9093C7008093C600AB989F918F9112
S11306A02F910F900FBE0F901F9018951F920F92CD
S11306B00FB60F9211242F933F938F939F93879993
S11306C026C021E085B3822785BB3FEF83ED90E30D
S11306D0315080409040E1F700C000008091C60096
S11306E09091C70088539F4F9093C7008093C60092
S11306F08091C4009091C50088539F4F9093C5008A
S11307008093C40085B3822785BB879BDBCF9F91F1
S11307108F913F912F910F900FBE0F901F901895BE
S11307201F920F920FB60F9211242F938F939F93C2
S1130730AA9A2FEF8DE399E4215080409040E1F78D
S113074000C000008091C8009091C90088539F4F59
S11307509093C9008093C8008091C4009091C50013
S113076088539F4F9093C5008093C400AA9886999C
S113077003C0A99A869BFDCFA9989F918F912F9131
S11307800F900FBE0F901F9018951F920F920FB6E7
S11307900F9211248F939F938091C6009091C7006C
S11307A001969093C7008093C6008091C4009091F5
S11307B0C50001969093C5008093C4008091C80041
S11307C09091C90001969093C9008093C8009F91AD
S11307D08F910F900FBE0F901F90189597FB072EC7
S11307E016F4009407D077FD09D00E94020407FC98
S11307F005D03EF4909581959F4F0895709561952D
S11308007F4F0895AA1BBB1B51E107C0AA1FBB1F42
S1130810A617B70710F0A61BB70B881F991F5A9588
S1130820A9F780959095BC01CD010895F894FFCF68
S11308300000040E0400000000040E1F0E0400005B
S1130840040404041F0E04000A15110A0400000025
S11308500A1F1F0E040000000C12120C00000000FE
S1130860040E1F0404040400010214080000000024
S113087054656D70653A0048756D69646974793AB8
S11308800057656C636F6D6500536D61727420432E
S10708906167650033
S9030000FC
